:100000000C9475030C949D030C949D030C949D0318
:100010000C949D030C949D030C949D030C949D03E0
:100020000C949D030C949D030C949D030C949D03D0
:100030000C949D030C949D030C949D030C949D03C0
:100040000C9436080C949D030C94B6090C949D03F3
:100050000C949D030C949D030C949D030C949D03A0
:100060000C949D030C949D0301100100FFFFFF0100
:10007000200101AFAFAF3C0001180102FF80003B3F
:100080000001100100224E0A01200205FFFF0000BE
:1000900000FF0200050000FFFFFF000280011001C9
:1000A00002FF0000380001220405FF0000000000EC
:1000B0002C00050000FF0000002C8005000000FF60
:1000C00000002E00050000000000FF2E800112023B
:1000D00005FFFFFF000000340005000000FFFFFFE8
:1000E0003A0001120205FFFFFF0000002200050098
:1000F0000000FFFFFF240001320102FF0000380072
:1001000001200102FF000070000108020200FF0050
:100110002800020000FF280001060102FF00002D58
:100120000001060102FF4000320001060102FF80CB
:1001300000350001080101FF00003600010801013F
:10014000FF4000370001080101FF8000380001086E
:100150000101FFC000380001080101FFFF00380065
:1001600001080101C0FF0039000108010180FF0002
:100170003A000108010140FF003D000108010100B3
:10018000FF0040000108010100FF40430001080199
:100190000100FF8046000108010100FFC048000186
:1001A00008010100FFFF4A000108010100C0FF4DE6
:1001B00000010801010080FF4F000108010100401B
:1001C000FF5100010801010000FF53000108010177
:1001D0004000FF5500010801018000FF6E0001088A
:1001E0000101C000FF8C0001080101FF00FFAA000F
:1001F00001080101FF00C0C80001080101FF0080E3
:10020000E60001080101FF0040FF0001180205FFA0
:1002100000000000002E0005000000FF00002E80FE
:1002200001200201FF000038000100FF003800013A
:10023000030101FFFFFF0C0001020101D0FFD014F8
:10024000000102010190FFB01C000102010170FFDA
:10025000A020000102010150FF90280001020101CD
:1002600040FF7030000155010130FF50380001257A
:10027000010120FF3040000115010110FF104C006A
:100280000110020210FF104C000210FF104B800101
:1002900010020200FF004000020000FF3E8001103B
:1002A000020200FF00380002FF0000368001100348
:1002B0000200FF00380002FF00003780020000FF4C
:1002C000060001200301FF000038000100FF003894
:1002D0007F01000010700001100201FF00002400E7
:1002E0000100FF00248001100201FF00002800012E
:1002F00000FF00288001080201FF0000300001001B
:100300009060308001080201FF00003800010060A9
:1003100090388001100201FF00004000010000FF42
:10032000408001180205FFFF000000002E000500BC
:100330000000FFFF002E8001100201FF00003C00C2
:10034000010000FF3C8001100201FF0000380001A5
:100350000000FF388001100201FF0000360001009C
:1003600000FF368001080201CF20003200010000AA
:10037000FF328001080201AF40002800010000FFA9
:100380002880011502010000FF380001FFFF00383E
:1003900080010401018000FF3E0001040101C00052
:1003A000FF3F0001040101FF00FF400001040101C3
:1003B000FF00C0410001040101FF00804200010470
:1003C0000101FF00404300010502010000FF33006E
:1003D00001FFFF003480010502010000FF38000129
:1003E000FFFF003880010502010000FF3A0001FF15
:1003F000FF003A80010502010000FF3C0001FFFF01
:10040000003C8001180205FF00FF000000420005CB
:10041000000000FF00FF428001040101FFC0002F27
:100420000001040101FFFF00300001040101C0FFD1
:100430000031000104010100FFFF38000104010147
:1004400000C0FF3900010401010080FF3A000104EF
:1004500001010040FF3B00010401010000FF3C00DE
:10046000010401014000FF3D00012003010000FFE5
:10047000380001FF000038800100FF0070000140DB
:1004800002010000FF80000100FF007C80014002AB
:10049000010000FF44000100FF0040800140020114
:1004A0000000FF3A000100FF00368001200201FF3A
:1004B000FF002400010000FF1E000120020100FFD8
:1004C000FF2E0001FF00002E000118020500FF00B2
:1004D0000000002E000500000000FF002E800140FB
:1004E0000201FF000058000100FF0054800140029B
:1004F00001FF00006C000100FF0068800140020164
:10050000FF000080000100FF007C8001400201FF2D
:10051000000058000100FF00548001400201FF006C
:10052000006C00010080FF688001400201FF0000B4
:100530003A00010000FF3680012002010000FF4266
:100540000001FF00004200012002010000FF38000E
:100550000100FF0039000104010180FF00320001A9
:1005600004010140FF0033000104010100FF0034D9
:10057000000104010100FF4035000104010100FFFA
:100580008036000104010100FFC03700FF80838630
:10059000898C8F9295989C9FA2A5A8ABAEB0B3B65C
:1005A000B9BCBFC1C4C7C9CCCED1D3D5D8DADCDE83
:1005B000E0E2E4E6E8EAECEDEFF0F2F3F5F6F7F866
:1005C000F9FAFBFCFCFDFEFEFFFFFFFFFFFFFFFF54
:1005D000FFFFFFFEFEFDFCFCFBFAF9F8F7F6F5F372
:1005E000F2F0EFEDECEAE8E6E4E2E0DEDCDAD8D5C2
:1005F000D3D1CECCC9C7C4C1BFBCB9B6B3B0AEAB02
:10060000A8A5A29F9C9895928F8C898683807C79DF
:100610007673706D6A6763605D5A5754514F4C49E9
:100620004643403E3B383633312E2C2A27252321A2
:100630001F1D1B1917151312100F0D0C0A0908079F
:100640000605040303020101000000000000000091
:1006500000000001010203030405060708090A0C53
:100660000D0F1012131517191B1D1F212325272AE3
:100670002C2E313336383B3E404346494C4F515483
:10068000575A5D6063676A6D707376797C0000000D
:1006900000240027002A0000000000250028002B6D
:1006A00000000000002300260029000404040404C4
:1006B000040404020202020202030303030303010F
:1006C00002040810204080010204081020010204E6
:1006D00008102000000007000201000003040600CB
:1006E0000000000000000000FF0A11241FBECFEF31
:1006F000D4E0DEBFCDBF13E0A0E0B1E0E8ECF8E16C
:1007000002C005900D92A637B107D9F714E0A6E70D
:10071000B3E001C01D92A23AB107E1F716E0CAEEBC
:10072000D6E004C02297FE010E94270CC83ED107E4
:10073000C9F70E942F080C94620C0C940000A0E0F2
:10074000B0E0E5EAF3E00C94330CEC01A880B9804A
:10075000CA80DB80A114B104C104D10441F484E255
:10076000A82E89EDB82E8BE5C82E87E0D82EC601BD
:10077000B5012DE133EF41E050E00E94F60B27EA8E
:1007800031E440E050E00E94A20B7B018C01C601E5
:10079000B5012DE133EF41E050E00E94F60BCA01B4
:1007A000B9012CEE34EF4FEF5FEF0E94A20B6E0DFC
:1007B0007F1D801F911F97FF04C0615070408040D3
:1007C0009048688379838A839B839B01AC015F7720
:1007D000B901CA01CDB7DEB7EAE00C944F0C0E9414
:1007E0009F03089584E592E00E949F03089560931B
:1007F00054027093550280935602909357020895C5
:100800000F931F93CF93DF93FC01E659FF4FE491C1
:10081000E0937C0310927D03AC014D5F5F4FC4E811
:10082000D3E000E010E082E1E89FB00111246C0FFA
:100830007D1F20C0D801AA0FBB1FAC57BC4F9A0127
:10084000CA010996F901E859FF4FE491EC9311961A
:100850001C9211972F5F3F4F12962817390791F777
:10086000E881F981E85AFD4F8081480F511D629659
:10087000075F1F4FC617D707E9F640937E035093D3
:100880007F03CA01DF91CF911F910F9108951F93AC
:1008900010E0812F61E00E9449091F5F1431C9F700
:1008A0001F910895DF920F93DF93CF9300D000D074
:1008B000CDB7DEB78091780390917903FC01E859B8
:1008C000FF4F049187599F4FFC01D4900E948A08E2
:1008D00069837A838B839C836D2D70E0882777FDF5
:1008E0008095982F28EE33E040E050E00E94A20B64
:1008F00023E095958795779567952A95D1F7298176
:100900003A814B815C81620F731F841F951F609336
:100910008003709381038093820390938303002369
:1009200019F0013039F512C0E0917803F0917903A4
:10093000E659FF4FE491F0E0808191810E9400042C
:100940008091780390917903049606C08091780392
:10095000909179030E940004909379038093780327
:1009600080917A0390917B03019690937B0380930F
:100970007A0308C0109279031092780310927B03D7
:1009800010927A030F900F900F900F90CF91DF91FC
:100990000F91DF9008958F929F92AF92BF92CF9266
:1009A000DF92EF92FF920F931F93CF93DF93EC01AF
:1009B0006B015A01790183E0A822BB240E948A08B6
:1009C0000027F7FC0095102FA80197010E94D40B77
:1009D000DA01C901490165E0E62EF12CEC0CFD1CA1
:1009E000B7010E94C10B8A199B098C159D054CF417
:1009F00097FD07C0C80FD91F8881992787FD90955B
:100A000002C080E290E080978F35910518F0E0E019
:100A1000F0E001C0FC01EE0FFF1FEC56FD4F00811E
:100A2000118180916C0261E00E94690980916E02DF
:100A300061E00E9469098091700261E00E94690989
:100A40008091720261E00E946909CEE5D2E0602FD8
:100A5000617088810E94690915950795229692E038
:100A6000CC36D907A1F7AA0CBB1CECE6F2E0AE0E1F
:100A7000BF1EF501808160E00E94690920E030E03E
:100A80008E149F0414F021E030E0C901DF91CF9172
:100A90001F910F91FF90EF90DF90CF90BF90AF909C
:100AA0009F908F900895EF92FF920F931F93CF9393
:100AB000DF938B010370107020E030E007C06AE024
:100AC00070E00E94C10BCB012F5F3F4F2017310711
:100AD000B4F36AE070E00E94C10BFC01EE0FFF1F4F
:100AE000EC58FD4FE080F18080916C0261E00E9443
:100AF000690980916E0261E00E946909809170022B
:100B000061E00E9469098091720261E00E946909B6
:100B1000CEE5D2E06E2D617088810E946909F5945E
:100B2000E794229682E0CC36D807A1F7000F111F78
:100B300004591D4FF801808160E00E946909DF912E
:100B4000CF911F910F91FF90EF9008950F931F93F6
:100B5000CF93DF938C01C0E0D0E0AE014E5A5C4FE2
:100B6000FE01E25AFC4FD801AC0FBD1F208131813C
:100B70008D919C91289FB001299F700D389F700D19
:100B80001124672F770F770BFA01808170E00E94A4
:100B9000F0082296CC30D10501F7DF91CF911F915B
:100BA0000F9108952F923F924F925F926F927F9292
:100BB0008F929F92AF92BF92CF92DF92EF92FF926D
:100BC0000F931F93DF93CF93CDB7DEB762970FB626
:100BD000F894DEBF0FBECDBF0E948A082B013C01F6
:100BE00096E0440C551C661C771C9A95D1F7FE01C3
:100BF00031968CE0DF011D928A95E9F784E8A82EF2
:100C000083E0B82E2224332401E0802E912CED873E
:100C1000FE87FE013796F88BEF87CE010D969A8BF3
:100C2000898B8AC1D5018D919C918230910509F4FF
:100C300082C08330910534F4009781F0019709F068
:100C400070C129C08430910509F4D3C08430910566
:100C50000CF4B8C0059709F064C11CC1D401AA0FF7
:100C6000BB1FAC57BC4F8D859E85FC018D919D911E
:100C700020813181280F391F3183208326813781DC
:100C8000280F391F3783268332968F859889E81776
:100C9000F90761F746C1D50118962C9130E040E084
:100CA00050E0C301B2010E94A20BFAE0959587952E
:100CB00077956795FA95D1F7F5012285620F711D39
:100CC000811D911DE7E09595879577956795EA9544
:100CD000D1F761707070807090702FEF30E040E05D
:100CE00050E00E94A20BD401AA0FBB1FAC57BC4F0F
:100CF0008D859E85FC0170E08D919D91689F90018E
:100D0000699F300D789F300D1124232F330F330B43
:100D100080819181820F931F918380838681978147
:100D2000820F931F9783868332968F859889E81761
:100D3000F90711F7F6C0D5011A96DC901A971896A4
:100D4000EC90FF2400E010E00E948A08A8019701BF
:100D50000E94A20B24E096958795779567952A9532
:100D6000D1F7ED2DF0E0E60FF71FF070E357FA4FE3
:100D70002491422F50E0D401AA0FBB1FAC57BC4FA7
:100D80008D859E85FC018D919D91489F9001499F85
:100D9000300D589F300D1124232F330F330B8081DA
:100DA0009181820F931F9183808386819781820F27
:100DB000931F9783868332968F859889E817F90762
:100DC00011F7AFC08D859E85DC01F401EE0FFF1F8A
:100DD000EC57FC4F8D919C91119721913191820F8D
:100DE000931F8D939D9389899A89A817B90791F7C5
:100DF00098C0D5011E962D913C911F97442737FD31
:100E00004095542FC301B2010E94A20BFAE09595C0
:100E1000879577956795FA95D1F7F50120893189FE
:100E2000442737FD4095542F620F731F841F951F71
:100E3000E7E09595879577956795EA95D1F7617085
:100E40007070807090702FEF30E040E050E00E94B2
:100E5000A20B8D859E85DC01F401EE0FFF1FEC5780
:100E6000FC4F81919191689F9001699F300D789F0F
:100E7000300D1124232F330F330B8D919C9111973B
:100E8000820F931F8D939D9389899A89A817B9071B
:100E900041F747C0D5015096CD90DC9051971E96F2
:100EA000ED90FC901F970027F7FC0095102F0E94F3
:100EB0008A08A80197010E94A20B24E096958795C5
:100EC000779567952A95D1F7C60ED71EBFEFCB222F
:100ED000DD24EDE8F5E0CE0EDF1EF6012491422F71
:100EE00050E08D859E85DC01F401EE0FFF1FEC576D
:100EF000FC4F81919191489F9001499F300D589FDF
:100F0000300D1124232F330F330B8D919C911197AA
:100F1000820F931F8D939D9389899A89A817B9078A
:100F200041F70894211C311CA2E1B0E0AA0EBB1EBF
:100F3000E9E0F0E08E0E9F1E80917C0390917D038E
:100F4000281639060CF46ECECE0101960E94A60535
:100F500062960FB6F894DEBF0FBECDBFCF91DF9182
:100F60001F910F91FF90EF90DF90CF90BF90AF90C7
:100F70009F908F907F906F905F904F903F902F90B9
:100F8000089580917A0390917B036091760370912C
:100F900077036F5F7F4F70937703609376036150A1
:100FA00070400E9453050E94D2050E948A08209139
:100FB0008003309181034091820350918303621733
:100FC00073078407950710F00E9452040895CF9389
:100FD000DF93109279031092780310927B031092A2
:100FE0007A038FE894E040E855E260E070E00E9408
:100FF000F3098FE894E060E071E00E948F0B82E1DA
:101000000E94D2080E949A0B0E9447048FE894E045
:101010006FE071E00E948F0BE7E2F1E0C0E0D0E00A
:1010200001C0219681918823E1F740917603509188
:1010300077034F5F5F4F50937703409376034150A0
:10104000504087E291E0BE0124EB30E00E94CB04E7
:10105000892B59F30E945204DF91CF9108950E9489
:1010600098080E94E7070E94C107FDCF1F920F92C8
:101070000FB60F9211242F933F934F935F936F936B
:101080007F938F939F93AF93BF93209106043091EA
:101090000704409108045091090470910A04DA0190
:1010A000C9010296A11DB11D672F6A5F6D3730F02F
:1010B0006D57DA01C9010396A11DB11D60930A04A1
:1010C0008093060490930704A0930804B093090446
:1010D0008091020490910304A0910404B09105044E
:1010E0000196A11DB11D8093020490930304A09367
:1010F0000404B0930504BF91AF919F918F917F91AC
:101100006F915F914F913F912F910F900FBE0F9074
:101110001F9018958FB7F89420910604309107041A
:1011200040910804509109048FBFB901CA01089584
:10113000789484B5826084BD84B5816084BD85B5B2
:10114000826085BD85B5816085BDEEE6F0E0808179
:1011500081608083E1E8F0E080818260808380812B
:1011600081608083E0E8F0E0808181608083E1EB52
:10117000F0E0808184608083E0EBF0E0808181603A
:101180008083EAE7F0E080818460808380818260F0
:1011900080838081816080838081806880831092D9
:1011A000C10008958F7090916A039295990F990FDD
:1011B000907C982B90937C0080917A00806480933F
:1011C0007A0080917A0086FDFCCF209178004091D2
:1011D0007900942F80E030E0282B392BC901089545
:1011E0001F93CF93DF93182FEB0161E00E94490911
:1011F000E12FF0E0ED52F94F8491833051F480916A
:101200008000806880938000D0938900C09388001C
:101210003CC0843051F480918000806280938000D3
:10122000D0938B00C0938A0030C0813039F420976E
:1012300029F184B5806884BDC7BD27C0823039F4E8
:101240002097E1F084B5806284BDC8BD1EC08630A1
:1012500041F48091B00080688093B000C093B300E7
:1012600014C0873041F48091B00080628093B00058
:10127000C093B4000AC0C038D1051CF4812F60E0CF
:1012800002C0812F61E00E946909DF91CF911F9117
:101290000895282F30E0C9018154994FFC019491A1
:1012A0002555394FF9018491882391F0E82FF0E01A
:1012B000EE0FFF1FE357F94FA591B491662329F470
:1012C0008C91909589238C9308958C91892B8C9384
:1012D0000895482F50E0CA018D52994FFC01249186
:1012E000CA018154994FFC0194914555594FFA0117
:1012F00034913323D1F1222331F1233021F4809131
:1013000080008F7705C0243031F4809180008F7D7C
:101310008093800018C0213019F484B58F7704C001
:10132000223021F484B58F7D84BD0DC0263021F498
:101330008091B0008F7705C0273029F48091B000EC
:101340008F7D8093B000E32FF0E0EE0FFF1FE95692
:10135000F94FA591B491662329F48C919095892336
:101360008C9308958C91892B8C9308951F920F92E2
:101370000FB60F9211242F933F934F935F936F9368
:101380007F938F939F93AF93BF93EF93FF9340917E
:10139000C600E0918B04F0918C04CF01019660E8C7
:1013A00070E00E94C10B9C0180918D0490918E048D
:1013B0002817390739F0E55FFB4F408330938C04E1
:1013C00020938B04FF91EF91BF91AF919F918F91EB
:1013D0007F916F915F914F913F912F910F900FBE31
:1013E0000F901F9018955F926F927F928F929F92AD
:1013F000AF92BF92CF92DF92EF92FF920F931F9323
:10140000CF93DF93EC013A014B01413281EA580757
:1014100087E0680780E078070CF07FC060E472E442
:101420008FE090E0A40193010E94F60B2150304020
:1014300040405040CA01B90122E030E040E050E0B5
:101440000E94F60B59016A01A6019501209530957D
:101450004095509594E0220F331F441F551F9A95D5
:10146000D1F760E072E18AE790E00E94F60BCA01D2
:10147000B9012FEF30E040E050E00E94A20BA40140
:1014800093010E94F60BC90181509F4F181619064F
:101490001CF4522E5A9403C055245394521A60E8F7
:1014A00074E88EE190E0A40193010E94F60B2150B4
:1014B000304040405040CA01B90122E030E040E0F5
:1014C00050E00E94F60B209530954095509583E0B2
:1014D000220F331F441F551F8A95D1F760E072E138
:1014E0008AE790E00E94F60BCA01B9012FEF30E0C5
:1014F00040E050E00E94A20BA40193010E94F60B71
:10150000C90181509F4F181619061CF4822F815073
:1015100002C081E0821B851500F5E885F98581E030
:1015200090E00A8802C0880F991F0A94E2F780832E
:1015300060E874E88EE190E0A40193010E94F60B4C
:101540002150304040405040CA01B90122E030E013
:1015500040E050E00E94F60B04C0E885F985108257
:101560009501EC81FD813083EE81FF812083EA8546
:10157000FB85208141E050E0CA010E8402C0880F43
:10158000991F0A94E2F7282B2083EA85FB852081A6
:10159000CA010F8402C0880F991F0A94E2F7282B12
:1015A0002083EA85FB858081088802C0440F551F8F
:1015B0000A94E2F7842B8083DF91CF911F910F91E2
:1015C000FF90EF90DF90CF90BF90AF909F908F9063
:1015D0007F906F905F900895FC01A085B18521896F
:1015E0008C9190E0022E02C0959587950A94E2F7BF
:1015F00080FFF6CF0484F585E02D608308958FE6A3
:1016000093E09093900480938F048BE094E0909308
:1016100092048093910485EC90E0909394048093DD
:10162000930484EC90E0909396048093950480EC6E
:1016300090E0909398048093970481EC90E09093CD
:101640009A048093990486EC90E090939C04809394
:101650009B0484E080939D0483E080939E0487E054
:1016600080939F0485E08093A00481E08093A1048F
:1016700008950F931F93CF93DF938C01EB0109C063
:101680002196D801ED91FC910190F081E02DC801E7
:10169000099568816623A1F7DF91CF911F910F9182
:1016A0000895EF92FF920F931F93CF93DF938C01D6
:1016B0007B01EA010CC0D7016D917D01D801ED914C
:1016C000FC910190F081E02DC801099521972097A8
:1016D00091F7DF91CF911F910F91FF90EF900895B7
:1016E000DC01ED91FC910280F381E02D09950895D4
:1016F0000F931F938C01DC01ED91FC910190F0811F
:10170000E02D6DE00995D801ED91FC910190F081FB
:10171000E02DC8016AE009951F910F9108950F937C
:101720001F938C010E94700BC8010E94780B1F91BF
:101730000F910895009729F0BC0180E090E00E948D
:10174000F7030895629FD001739FF001829FE00D1F
:10175000F11D649FE00DF11D929FF00D839FF00D30
:10176000749FF00D659FF00D9927729FB00DE11DDC
:10177000F91F639FB00DE11DF91FBD01CF011124B9
:10178000089597FB092E07260AD077FD04D049D08B
:1017900006D000201AF4709561957F4F0895F6F7F2
:1017A000909581959F4F0895A1E21A2EAA1BBB1B0D
:1017B000FD010DC0AA1FBB1FEE1FFF1FA217B3071D
:1017C000E407F50720F0A21BB30BE40BF50B661F33
:1017D000771F881F991F1A9469F7609570958095F7
:1017E00090959B01AC01BD01CF01089597FB092E97
:1017F00005260ED057FD04D0D7DF0AD0001C38F4E0
:1018000050954095309521953F4F4F4F5F4F08952C
:10181000F6F790958095709561957F4F8F4F9F4F0C
:101820000895AA1BBB1B51E107C0AA1FBB1FA61727
:10183000B70710F0A61BB70B881F991F5A95A9F779
:1018400080959095BC01CD010895EE0FFF1F059086
:10185000F491E02D09942F923F924F925F926F92F4
:101860007F928F929F92AF92BF92CF92DF92EF9230
:10187000FF920F931F93CF93DF93CDB7DEB7CA1BB1
:10188000DB0B0FB6F894DEBF0FBECDBF09942A88DC
:10189000398848885F846E847D848C849B84AA8484
:1018A000B984C884DF80EE80FD800C811B81AA8111
:1018B000B981CE0FD11D0FB6F894DEBF0FBECDBFDC
:0818C000ED010895F894FFCF3B
:1018C80053455249414C2052554E4E494E470049C6
:1018D8004E495449414C495A4154494F4E20434F6F
:1018E8004D504C455445004752454554494E475381
:1018F8002050524F464553534F52202D202D202D16
:1019080020454E4A4F592020002D202D2048456C57
:101918006C6F202020434974497A456E53204F66E6
:1019280020535041434573484970204541727468BB
:10193800202D207448497320495320796F757220EF
:101948004341707441496E202D20796F7572204390
:1019580041707441496E2049532044454144202D2B
:101968002072454C494749306E2049532041207622
:1019780069727553206F6620746845205330554C42
:1019880020416E64205348414C4C206245204572EA
:10199800416449434174456420624566307245207C
:1019A80069742043416E2050304C4C557445205585
:1019B8007320416C6C202D204974206973204C459C
:1019C800465420746F207573202D20416C6F6E452E
:1019D800206F6E204541727468202D20746F20722C
:1019E8006562656C20416761696E7374207468650F
:1019F80020747972616E6E79206F66207468652034
:101A080073656C66697368207265706C696361746C
:101A18006F72730001000000040606070909100030
:101A280013000C0012000700080004000D000E004F
:101A3800110002007B0048003D006D004E00670069
:101A4800770049007F006F005F00760033007C005C
:101A580037001700000000000A0000000000000026
:101A68000000080013006800000000006000040087
:101A7800000000007B0048003D006D004E0067003C
:101A8800770049007F006F0000000000000024007C
:101A980000001D0000005F00760033007C00370066
:101AA800170073005E0012007800570032003500FE
:101AB800540074001F004F001400670036007A00BD
:101AC80030002D0025006E003D0013000000680066
:101AD8000900200008007D00760034007C003F00EB
:101AE80017006F00560010007800570032003500CC
:101AF800540074001F004F001400460036007000A8
:101B080030002D0025006E001C0013000000680046
:101B1800000003000600050009000B000A00FF0092
:101B280090009000FF00E000E0000100000000ECE1
:061B38000A390B510B00FD
:00000001FF
